{
  "_format": "hh-sol-artifact-1",
  "contractName": "TimeCapsule",
  "sourceName": "contracts/TimeCapsule.sol",
  "abi": [
    {
      "anonymous": false,
      "inputs": [
        {
          "indexed": true,
          "internalType": "address",
          "name": "sender",
          "type": "address"
        },
        {
          "indexed": false,
          "internalType": "uint256",
          "name": "unlockTime",
          "type": "uint256"
        }
      ],
      "name": "CapsuleCreated",
      "type": "event"
    },
    {
      "anonymous": false,
      "inputs": [
        {
          "indexed": true,
          "internalType": "address",
          "name": "sender",
          "type": "address"
        },
        {
          "indexed": false,
          "internalType": "string",
          "name": "message",
          "type": "string"
        }
      ],
      "name": "CapsuleRetrieved",
      "type": "event"
    },
    {
      "inputs": [
        {
          "internalType": "address",
          "name": "",
          "type": "address"
        }
      ],
      "name": "capsules",
      "outputs": [
        {
          "internalType": "string",
          "name": "message",
          "type": "string"
        },
        {
          "internalType": "uint256",
          "name": "unlockTime",
          "type": "uint256"
        },
        {
          "internalType": "bool",
          "name": "retrieved",
          "type": "bool"
        }
      ],
      "stateMutability": "view",
      "type": "function"
    },
    {
      "inputs": [
        {
          "internalType": "string",
          "name": "_message",
          "type": "string"
        },
        {
          "internalType": "uint256",
          "name": "_lockTime",
          "type": "uint256"
        }
      ],
      "name": "createCapsule",
      "outputs": [],
      "stateMutability": "nonpayable",
      "type": "function"
    },
    {
      "inputs": [],
      "name": "retrieveCapsule",
      "outputs": [],
      "stateMutability": "nonpayable",
      "type": "function"
    },
    {
      "inputs": [],
      "name": "viewCapsule",
      "outputs": [
        {
          "internalType": "string",
          "name": "",
          "type": "string"
        },
        {
          "internalType": "uint256",
          "name": "",
          "type": "uint256"
        },
        {
          "internalType": "bool",
          "name": "",
          "type": "bool"
        }
      ],
      "stateMutability": "view",
      "type": "function"
    }
  ],
  "bytecode": "0x6080604052348015600f57600080fd5b50610f9f8061001f6000396000f3fe608060405234801561001057600080fd5b506004361061004c5760003560e01c806304a3cdbc1461005157806381f8b8d914610071578063ba2613cb146100a3578063d5e0d88e146100ad575b600080fd5b6100596100c9565b60405161006893929190610758565b60405180910390f35b61008b600480360381019061008691906107fe565b610234565b60405161009a93929190610758565b60405180910390f35b6100ab6102f3565b005b6100c760048036038101906100c291906108bc565b610486565b005b606060008060008060003373ffffffffffffffffffffffffffffffffffffffff1673ffffffffffffffffffffffffffffffffffffffff1681526020019081526020016000206040518060600160405290816000820180546101299061094b565b80601f01602080910402602001604051908101604052809291908181526020018280546101559061094b565b80156101a25780601f10610177576101008083540402835291602001916101a2565b820191906000526020600020905b81548152906001019060200180831161018557829003601f168201915b50505050508152602001600182015481526020016002820160009054906101000a900460ff16151515158152505090506000816020015111610219576040517f08c379a0000000000000000000000000000000000000000000000000000000008152600401610210906109c8565b60405180910390fd5b80600001518160200151826040015193509350935050909192565b60006020528060005260406000206000915090508060000180546102579061094b565b80601f01602080910402602001604051908101604052809291908181526020018280546102839061094b565b80156102d05780601f106102a5576101008083540402835291602001916102d0565b820191906000526020600020905b8154815290600101906020018083116102b357829003601f168201915b5050505050908060010154908060020160009054906101000a900460ff16905083565b60008060003373ffffffffffffffffffffffffffffffffffffffff1673ffffffffffffffffffffffffffffffffffffffff1681526020019081526020016000209050600081600101541161037c576040517f08c379a0000000000000000000000000000000000000000000000000000000008152600401610373906109c8565b60405180910390fd5b80600101544210156103c3576040517f08c379a00000000000000000000000000000000000000000000000000000000081526004016103ba90610a34565b60405180910390fd5b8060020160009054906101000a900460ff1615610415576040517f08c379a000000000000000000000000000000000000000000000000000000000815260040161040c90610aa0565b60405180910390fd5b60018160020160006101000a81548160ff0219169083151502179055503373ffffffffffffffffffffffffffffffffffffffff167fdc3dd84ee38d618a186d5e963b36af72037e9dafa5c6b636ea99b2a10ef620758260000160405161047b9190610b59565b60405180910390a250565b60008060003373ffffffffffffffffffffffffffffffffffffffff1673ffffffffffffffffffffffffffffffffffffffff168152602001908152602001600020600101541461050a576040517f08c379a000000000000000000000000000000000000000000000000000000000815260040161050190610bc7565b60405180910390fd5b6000811161054d576040517f08c379a000000000000000000000000000000000000000000000000000000000815260040161054490610c33565b60405180910390fd5b6000814261055b9190610c82565b9050604051806060016040528085858080601f016020809104026020016040519081016040528093929190818152602001838380828437600081840152601f19601f820116905080830192505050505050508152602001828152602001600015158152506000803373ffffffffffffffffffffffffffffffffffffffff1673ffffffffffffffffffffffffffffffffffffffff16815260200190815260200160002060008201518160000190816106129190610e7c565b506020820151816001015560408201518160020160006101000a81548160ff0219169083151502179055509050503373ffffffffffffffffffffffffffffffffffffffff167fb6d5a53adf9feebfd8fe1b61c8c721b6be115ea05e7b31f389a6b7a82a6540e3826040516106869190610f4e565b60405180910390a250505050565b600081519050919050565b600082825260208201905092915050565b60005b838110156106ce5780820151818401526020810190506106b3565b60008484015250505050565b6000601f19601f8301169050919050565b60006106f682610694565b610700818561069f565b93506107108185602086016106b0565b610719816106da565b840191505092915050565b6000819050919050565b61073781610724565b82525050565b60008115159050919050565b6107528161073d565b82525050565b6000606082019050818103600083015261077281866106eb565b9050610781602083018561072e565b61078e6040830184610749565b949350505050565b600080fd5b600080fd5b600073ffffffffffffffffffffffffffffffffffffffff82169050919050565b60006107cb826107a0565b9050919050565b6107db816107c0565b81146107e657600080fd5b50565b6000813590506107f8816107d2565b92915050565b60006020828403121561081457610813610796565b5b6000610822848285016107e9565b91505092915050565b600080fd5b600080fd5b600080fd5b60008083601f8401126108505761084f61082b565b5b8235905067ffffffffffffffff81111561086d5761086c610830565b5b60208301915083600182028301111561088957610888610835565b5b9250929050565b61089981610724565b81146108a457600080fd5b50565b6000813590506108b681610890565b92915050565b6000806000604084860312156108d5576108d4610796565b5b600084013567ffffffffffffffff8111156108f3576108f261079b565b5b6108ff8682870161083a565b93509350506020610912868287016108a7565b9150509250925092565b7f4e487b7100000000000000000000000000000000000000000000000000000000600052602260045260246000fd5b6000600282049050600182168061096357607f821691505b6020821081036109765761097561091c565b5b50919050565b7f4e6f2063617073756c6520666f756e6400000000000000000000000000000000600082015250565b60006109b260108361069f565b91506109bd8261097c565b602082019050919050565b600060208201905081810360008301526109e1816109a5565b9050919050565b7f43617073756c65206973207374696c6c206c6f636b6564000000000000000000600082015250565b6000610a1e60178361069f565b9150610a29826109e8565b602082019050919050565b60006020820190508181036000830152610a4d81610a11565b9050919050565b7f43617073756c6520616c72656164792072657472696576656400000000000000600082015250565b6000610a8a60198361069f565b9150610a9582610a54565b602082019050919050565b60006020820190508181036000830152610ab981610a7d565b9050919050565b60008190508160005260206000209050919050565b60008154610ae28161094b565b610aec818661069f565b94506001821660008114610b075760018114610b1d57610b50565b60ff198316865281151560200286019350610b50565b610b2685610ac0565b60005b83811015610b4857815481890152600182019150602081019050610b29565b808801955050505b50505092915050565b60006020820190508181036000830152610b738184610ad5565b905092915050565b7f43617073756c6520616c72656164792065786973747300000000000000000000600082015250565b6000610bb160168361069f565b9150610bbc82610b7b565b602082019050919050565b60006020820190508181036000830152610be081610ba4565b9050919050565b7f4c6f636b2074696d65206d7573742062652067726561746572207468616e2030600082015250565b6000610c1d60208361069f565b9150610c2882610be7565b602082019050919050565b60006020820190508181036000830152610c4c81610c10565b9050919050565b7f4e487b7100000000000000000000000000000000000000000000000000000000600052601160045260246000fd5b6000610c8d82610724565b9150610c9883610724565b9250828201905080821115610cb057610caf610c53565b5b92915050565b7f4e487b7100000000000000000000000000000000000000000000000000000000600052604160045260246000fd5b60006020601f8301049050919050565b600082821b905092915050565b600060088302610d327fffffffffffffffffffffffffffffffffffffffffffffffffffffffffffffffff82610cf5565b610d3c8683610cf5565b95508019841693508086168417925050509392505050565b6000819050919050565b6000610d79610d74610d6f84610724565b610d54565b610724565b9050919050565b6000819050919050565b610d9383610d5e565b610da7610d9f82610d80565b848454610d02565b825550505050565b600090565b610dbc610daf565b610dc7818484610d8a565b505050565b5b81811015610deb57610de0600082610db4565b600181019050610dcd565b5050565b601f821115610e3057610e0181610ac0565b610e0a84610ce5565b81016020851015610e19578190505b610e2d610e2585610ce5565b830182610dcc565b50505b505050565b600082821c905092915050565b6000610e5360001984600802610e35565b1980831691505092915050565b6000610e6c8383610e42565b9150826002028217905092915050565b610e8582610694565b67ffffffffffffffff811115610e9e57610e9d610cb6565b5b610ea8825461094b565b610eb3828285610def565b600060209050601f831160018114610ee65760008415610ed4578287015190505b610ede8582610e60565b865550610f46565b601f198416610ef486610ac0565b60005b82811015610f1c57848901518255600182019150602085019450602081019050610ef7565b86831015610f395784890151610f35601f891682610e42565b8355505b6001600288020188555050505b505050505050565b6000602082019050610f63600083018461072e565b9291505056fea26469706673582212203c95ccae26f949d8fcaa800a364829005d18ba5c9eea52caf132883613a7d39064736f6c634300081c0033",
  "linkReferences": {},
  "deployedLinkReferences": {}
}